{
  "contractName": "PricingSheet",
  "abi": [
    {
      "anonymous": false,
      "inputs": [
        {
          "indexed": true,
          "internalType": "uint256",
          "name": "amount",
          "type": "uint256"
        }
      ],
      "name": "NewFee",
      "type": "event"
    },
    {
      "anonymous": false,
      "inputs": [
        {
          "indexed": true,
          "internalType": "uint256",
          "name": "index",
          "type": "uint256"
        }
      ],
      "name": "NewPricing",
      "type": "event"
    },
    {
      "anonymous": false,
      "inputs": [
        {
          "indexed": true,
          "internalType": "uint256",
          "name": "index",
          "type": "uint256"
        }
      ],
      "name": "NewVersion",
      "type": "event"
    },
    {
      "anonymous": false,
      "inputs": [
        {
          "indexed": true,
          "internalType": "address",
          "name": "previousOwner",
          "type": "address"
        },
        {
          "indexed": true,
          "internalType": "address",
          "name": "newOwner",
          "type": "address"
        }
      ],
      "name": "OwnershipTransferred",
      "type": "event"
    },
    {
      "anonymous": false,
      "inputs": [
        {
          "indexed": true,
          "internalType": "uint256",
          "name": "index",
          "type": "uint256"
        }
      ],
      "name": "PricingDisabled",
      "type": "event"
    },
    {
      "anonymous": false,
      "inputs": [
        {
          "indexed": true,
          "internalType": "uint256",
          "name": "index",
          "type": "uint256"
        }
      ],
      "name": "PricingUpdated",
      "type": "event"
    },
    {
      "inputs": [
        {
          "internalType": "uint256",
          "name": "i",
          "type": "uint256"
        }
      ],
      "name": "getDocument",
      "outputs": [
        {
          "internalType": "string",
          "name": "",
          "type": "string"
        }
      ],
      "stateMutability": "view",
      "type": "function",
      "constant": true
    },
    {
      "inputs": [],
      "name": "getDocument",
      "outputs": [
        {
          "internalType": "string",
          "name": "",
          "type": "string"
        }
      ],
      "stateMutability": "view",
      "type": "function",
      "constant": true
    },
    {
      "inputs": [],
      "name": "getDocumentLength",
      "outputs": [
        {
          "internalType": "uint256",
          "name": "",
          "type": "uint256"
        }
      ],
      "stateMutability": "view",
      "type": "function",
      "constant": true
    },
    {
      "inputs": [
        {
          "internalType": "string",
          "name": "cid",
          "type": "string"
        }
      ],
      "name": "getDocumentTimestamp",
      "outputs": [
        {
          "internalType": "uint256",
          "name": "",
          "type": "uint256"
        }
      ],
      "stateMutability": "view",
      "type": "function",
      "constant": true
    },
    {
      "inputs": [],
      "name": "getFee",
      "outputs": [
        {
          "internalType": "uint256",
          "name": "",
          "type": "uint256"
        }
      ],
      "stateMutability": "view",
      "type": "function",
      "constant": true
    },
    {
      "inputs": [],
      "name": "owner",
      "outputs": [
        {
          "internalType": "address",
          "name": "",
          "type": "address"
        }
      ],
      "stateMutability": "view",
      "type": "function",
      "constant": true
    },
    {
      "inputs": [],
      "name": "renounceOwnership",
      "outputs": [],
      "stateMutability": "nonpayable",
      "type": "function"
    },
    {
      "inputs": [
        {
          "internalType": "string",
          "name": "cid",
          "type": "string"
        }
      ],
      "name": "setDocument",
      "outputs": [],
      "stateMutability": "payable",
      "type": "function",
      "payable": true
    },
    {
      "inputs": [
        {
          "internalType": "uint256",
          "name": "amount",
          "type": "uint256"
        }
      ],
      "name": "setFee",
      "outputs": [],
      "stateMutability": "nonpayable",
      "type": "function"
    },
    {
      "inputs": [
        {
          "internalType": "address",
          "name": "newOwner",
          "type": "address"
        }
      ],
      "name": "transferOwnership",
      "outputs": [],
      "stateMutability": "nonpayable",
      "type": "function"
    },
    {
      "inputs": [],
      "name": "getPricingsLength",
      "outputs": [
        {
          "internalType": "uint256",
          "name": "",
          "type": "uint256"
        }
      ],
      "stateMutability": "view",
      "type": "function",
      "constant": true
    },
    {
      "inputs": [
        {
          "internalType": "uint256",
          "name": "i",
          "type": "uint256"
        }
      ],
      "name": "getPricing",
      "outputs": [
        {
          "components": [
            {
              "internalType": "bool",
              "name": "available",
              "type": "bool"
            },
            {
              "internalType": "string",
              "name": "label",
              "type": "string"
            },
            {
              "internalType": "uint256",
              "name": "price",
              "type": "uint256"
            }
          ],
          "internalType": "struct PricingSheet.Pricing",
          "name": "",
          "type": "tuple"
        }
      ],
      "stateMutability": "view",
      "type": "function",
      "constant": true
    },
    {
      "inputs": [
        {
          "internalType": "string",
          "name": "_label",
          "type": "string"
        },
        {
          "internalType": "uint256",
          "name": "_price",
          "type": "uint256"
        }
      ],
      "name": "addPricing",
      "outputs": [],
      "stateMutability": "payable",
      "type": "function",
      "payable": true
    },
    {
      "inputs": [
        {
          "internalType": "uint256",
          "name": "i",
          "type": "uint256"
        },
        {
          "internalType": "string",
          "name": "_label",
          "type": "string"
        },
        {
          "internalType": "uint256",
          "name": "_price",
          "type": "uint256"
        }
      ],
      "name": "editPricing",
      "outputs": [],
      "stateMutability": "payable",
      "type": "function",
      "payable": true
    },
    {
      "inputs": [
        {
          "internalType": "uint256",
          "name": "i",
          "type": "uint256"
        }
      ],
      "name": "disablePricing",
      "outputs": [],
      "stateMutability": "payable",
      "type": "function",
      "payable": true
    }
  ],
  "bytecode": "0x6080604052600060035534801561001557600080fd5b5061003261002761003760201b60201c565b61003f60201b60201c565b610103565b600033905090565b60008060009054906101000a900473ffffffffffffffffffffffffffffffffffffffff169050816000806101000a81548173ffffffffffffffffffffffffffffffffffffffff021916908373ffffffffffffffffffffffffffffffffffffffff1602179055508173ffffffffffffffffffffffffffffffffffffffff168173ffffffffffffffffffffffffffffffffffffffff167f8be0079c531659141344cd1fd0a4f28419497f9722a3daafe3b4186f6b6457e060405160405180910390a35050565b611a95806101126000396000f3fe6080604052600436106100e85760003560e01c80638a60181a1161008a578063c12f1a4211610059578063c12f1a4214610298578063ced72f87146102d5578063f080b1c514610300578063f2fde38b1461032b576100e8565b80638a60181a146101e95780638da5cb5b14610205578063af38930714610230578063b6f3f14d1461026d576100e8565b806369fe0e2d116100c657806369fe0e2d14610162578063715018a61461018b5780637b416d8e146101a25780637ff98377146101be576100e8565b80633f9b250a146100ed57806351780b6e1461012a578063537c078614610146575b600080fd5b3480156100f957600080fd5b50610114600480360381019061010f9190611305565b610354565b60405161012191906116eb565b60405180910390f35b610144600480360381019061013f91906112b1565b61042a565b005b610160600480360381019061015b9190611270565b610610565b005b34801561016e57600080fd5b5061018960048036038101906101849190611305565b61079a565b005b34801561019757600080fd5b506101a061084d565b005b6101bc60048036038101906101b79190611305565b6108d5565b005b3480156101ca57600080fd5b506101d36109f3565b6040516101e091906117ef565b60405180910390f35b61020360048036038101906101fe9190611357565b610a00565b005b34801561021157600080fd5b5061021a610c8c565b60405161022791906116d0565b60405180910390f35b34801561023c57600080fd5b5061025760048036038101906102529190611270565b610cb5565b60405161026491906117ef565b60405180910390f35b34801561027957600080fd5b50610282610cdd565b60405161028f91906116eb565b60405180910390f35b3480156102a457600080fd5b506102bf60048036038101906102ba9190611305565b610de6565b6040516102cc91906117cd565b60405180910390f35b3480156102e157600080fd5b506102ea610eff565b6040516102f791906117ef565b60405180910390f35b34801561030c57600080fd5b50610315610f09565b60405161032291906117ef565b60405180910390f35b34801561033757600080fd5b50610352600480360381019061034d9190611247565b610f16565b005b606060018281548110610390577f4e487b7100000000000000000000000000000000000000000000000000000000600052603260045260246000fd5b9060005260206000200180546103a590611961565b80601f01602080910402602001604051908101604052809291908181526020018280546103d190611961565b801561041e5780601f106103f35761010080835404028352916020019161041e565b820191906000526020600020905b81548152906001019060200180831161040157829003601f168201915b50505050509050919050565b3073ffffffffffffffffffffffffffffffffffffffff1663ced72f876040518163ffffffff1660e01b815260040160206040518083038186803b15801561047057600080fd5b505afa158015610484573d6000803e3d6000fd5b505050506040513d601f19601f820116820180604052508101906104a8919061132e565b3410156104b457600080fd5b60008251116104f8576040517f08c379a00000000000000000000000000000000000000000000000000000000081526004016104ef906117ad565b60405180910390fd5b600081101561053c576040517f08c379a00000000000000000000000000000000000000000000000000000000081526004016105339061176d565b60405180910390fd5b6004604051806060016040528060011515815260200184815260200183815250908060018154018082558091505060019003906000526020600020906003020160009091909190915060008201518160000160006101000a81548160ff02191690831515021790555060208201518160010190805190602001906105c19291906110da565b5060408201518160020155505060016004805490506105e091906118a3565b7fec07903169417f8f86cea39660b8fb4409d9de5d053c2e7a8feaffba6232ca7260405160405180910390a25050565b3073ffffffffffffffffffffffffffffffffffffffff1663ced72f876040518163ffffffff1660e01b815260040160206040518083038186803b15801561065657600080fd5b505afa15801561066a573d6000803e3d6000fd5b505050506040513d601f19601f8201168201806040525081019061068e919061132e565b34101561069a57600080fd5b60006002826040516106ac91906116b9565b908152602001604051809103902054146106fb576040517f08c379a00000000000000000000000000000000000000000000000000000000081526004016106f29061172d565b60405180910390fd5b4260028260405161070c91906116b9565b9081526020016040518091039020819055506001819080600181540180825580915050600190039060005260206000200160009091909190915090805190602001906107599291906110da565b506001808054905061076b91906118a3565b7f2377dbac273100553910be417049f43b6cc9b6605e656d62733628454b30c8ce60405160405180910390a250565b6107a261100e565b73ffffffffffffffffffffffffffffffffffffffff166107c0610c8c565b73ffffffffffffffffffffffffffffffffffffffff1614610816576040517f08c379a000000000000000000000000000000000000000000000000000000000815260040161080d9061174d565b60405180910390fd5b80600381905550807f63fe946ed58429ac3c5e64d4356ff92c26d7fa1e73586515df8ba9f059ab54a560405160405180910390a250565b61085561100e565b73ffffffffffffffffffffffffffffffffffffffff16610873610c8c565b73ffffffffffffffffffffffffffffffffffffffff16146108c9576040517f08c379a00000000000000000000000000000000000000000000000000000000081526004016108c09061174d565b60405180910390fd5b6108d36000611016565b565b3073ffffffffffffffffffffffffffffffffffffffff1663ced72f876040518163ffffffff1660e01b815260040160206040518083038186803b15801561091b57600080fd5b505afa15801561092f573d6000803e3d6000fd5b505050506040513d601f19601f82011682018060405250810190610953919061132e565b34101561095f57600080fd5b60006004828154811061099b577f4e487b7100000000000000000000000000000000000000000000000000000000600052603260045260246000fd5b906000526020600020906003020160000160006101000a81548160ff021916908315150217905550807f89a624f5b15a7a95fa6b1c528a22dc8d76e70cbf7a81377ddb89256ab081a59e60405160405180910390a250565b6000600480549050905090565b3073ffffffffffffffffffffffffffffffffffffffff1663ced72f876040518163ffffffff1660e01b815260040160206040518083038186803b158015610a4657600080fd5b505afa158015610a5a573d6000803e3d6000fd5b505050506040513d601f19601f82011682018060405250810190610a7e919061132e565b341015610a8a57600080fd5b6000825111610ace576040517f08c379a0000000000000000000000000000000000000000000000000000000008152600401610ac5906117ad565b60405180910390fd5b6000811015610b12576040517f08c379a0000000000000000000000000000000000000000000000000000000008152600401610b099061176d565b60405180910390fd5b60048381548110610b4c577f4e487b7100000000000000000000000000000000000000000000000000000000600052603260045260246000fd5b906000526020600020906003020160000160009054906101000a900460ff16610baa576040517f08c379a0000000000000000000000000000000000000000000000000000000008152600401610ba19061178d565b60405180910390fd5b8160048481548110610be5577f4e487b7100000000000000000000000000000000000000000000000000000000600052603260045260246000fd5b90600052602060002090600302016001019080519060200190610c099291906110da565b508060048481548110610c45577f4e487b7100000000000000000000000000000000000000000000000000000000600052603260045260246000fd5b906000526020600020906003020160020181905550827fb008cd76c510abcc3816b2078377051cc946bfc2c06c3fd13b3804c019207b8960405160405180910390a2505050565b60008060009054906101000a900473ffffffffffffffffffffffffffffffffffffffff16905090565b6000600282604051610cc791906116b9565b9081526020016040518091039020549050919050565b606060006001805490501415610d0457604051806020016040528060008152509050610de3565b6001808080549050610d1691906118a3565b81548110610d4d577f4e487b7100000000000000000000000000000000000000000000000000000000600052603260045260246000fd5b906000526020600020018054610d6290611961565b80601f0160208091040260200160405190810160405280929190818152602001828054610d8e90611961565b8015610ddb5780601f10610db057610100808354040283529160200191610ddb565b820191906000526020600020905b815481529060010190602001808311610dbe57829003601f168201915b505050505090505b90565b610dee611160565b60048281548110610e28577f4e487b7100000000000000000000000000000000000000000000000000000000600052603260045260246000fd5b90600052602060002090600302016040518060600160405290816000820160009054906101000a900460ff16151515158152602001600182018054610e6c90611961565b80601f0160208091040260200160405190810160405280929190818152602001828054610e9890611961565b8015610ee55780601f10610eba57610100808354040283529160200191610ee5565b820191906000526020600020905b815481529060010190602001808311610ec857829003601f168201915b505050505081526020016002820154815250509050919050565b6000600354905090565b6000600180549050905090565b610f1e61100e565b73ffffffffffffffffffffffffffffffffffffffff16610f3c610c8c565b73ffffffffffffffffffffffffffffffffffffffff1614610f92576040517f08c379a0000000000000000000000000000000000000000000000000000000008152600401610f899061174d565b60405180910390fd5b600073ffffffffffffffffffffffffffffffffffffffff168173ffffffffffffffffffffffffffffffffffffffff161415611002576040517f08c379a0000000000000000000000000000000000000000000000000000000008152600401610ff99061170d565b60405180910390fd5b61100b81611016565b50565b600033905090565b60008060009054906101000a900473ffffffffffffffffffffffffffffffffffffffff169050816000806101000a81548173ffffffffffffffffffffffffffffffffffffffff021916908373ffffffffffffffffffffffffffffffffffffffff1602179055508173ffffffffffffffffffffffffffffffffffffffff168173ffffffffffffffffffffffffffffffffffffffff167f8be0079c531659141344cd1fd0a4f28419497f9722a3daafe3b4186f6b6457e060405160405180910390a35050565b8280546110e690611961565b90600052602060002090601f016020900481019282611108576000855561114f565b82601f1061112157805160ff191683800117855561114f565b8280016001018555821561114f579182015b8281111561114e578251825591602001919060010190611133565b5b50905061115c9190611183565b5090565b604051806060016040528060001515815260200160608152602001600081525090565b5b8082111561119c576000816000905550600101611184565b5090565b60006111b36111ae8461183b565b61180a565b9050828152602081018484840111156111cb57600080fd5b6111d684828561191f565b509392505050565b6000813590506111ed81611a31565b92915050565b600082601f83011261120457600080fd5b81356112148482602086016111a0565b91505092915050565b60008135905061122c81611a48565b92915050565b60008151905061124181611a48565b92915050565b60006020828403121561125957600080fd5b6000611267848285016111de565b91505092915050565b60006020828403121561128257600080fd5b600082013567ffffffffffffffff81111561129c57600080fd5b6112a8848285016111f3565b91505092915050565b600080604083850312156112c457600080fd5b600083013567ffffffffffffffff8111156112de57600080fd5b6112ea858286016111f3565b92505060206112fb8582860161121d565b9150509250929050565b60006020828403121561131757600080fd5b60006113258482850161121d565b91505092915050565b60006020828403121561134057600080fd5b600061134e84828501611232565b91505092915050565b60008060006060848603121561136c57600080fd5b600061137a8682870161121d565b935050602084013567ffffffffffffffff81111561139757600080fd5b6113a3868287016111f3565b92505060406113b48682870161121d565b9150509250925092565b6113c7816118d7565b82525050565b6113d6816118e9565b82525050565b60006113e78261186b565b6113f18185611876565b935061140181856020860161192e565b61140a81611a20565b840191505092915050565b60006114208261186b565b61142a8185611887565b935061143a81856020860161192e565b61144381611a20565b840191505092915050565b60006114598261186b565b6114638185611898565b935061147381856020860161192e565b80840191505092915050565b600061148c602683611887565b91507f4f776e61626c653a206e6577206f776e657220697320746865207a65726f206160008301527f64647265737300000000000000000000000000000000000000000000000000006020830152604082019050919050565b60006114f2601883611887565b91507f446f63756d656e7420616c7265616479206578697374732e00000000000000006000830152602082019050919050565b6000611532602083611887565b91507f4f776e61626c653a2063616c6c6572206973206e6f7420746865206f776e65726000830152602082019050919050565b6000611572602083611887565b91507f5072696365206d7573742062652067726561746572207468616e207a65726f2e6000830152602082019050919050565b60006115b2602183611887565b91507f50726963696e67206973206e6f7420617661696c61626c6520616e796d6f726560008301527f2e000000000000000000000000000000000000000000000000000000000000006020830152604082019050919050565b6000611618601683611887565b91507f4c6162656c2063616e6e6f7420626520656d7074792e000000000000000000006000830152602082019050919050565b600060608301600083015161166360008601826113cd565b506020830151848203602086015261167b82826113dc565b9150506040830151611690604086018261169b565b508091505092915050565b6116a481611915565b82525050565b6116b381611915565b82525050565b60006116c5828461144e565b915081905092915050565b60006020820190506116e560008301846113be565b92915050565b600060208201905081810360008301526117058184611415565b905092915050565b600060208201905081810360008301526117268161147f565b9050919050565b60006020820190508181036000830152611746816114e5565b9050919050565b6000602082019050818103600083015261176681611525565b9050919050565b6000602082019050818103600083015261178681611565565b9050919050565b600060208201905081810360008301526117a6816115a5565b9050919050565b600060208201905081810360008301526117c68161160b565b9050919050565b600060208201905081810360008301526117e7818461164b565b905092915050565b600060208201905061180460008301846116aa565b92915050565b6000604051905081810181811067ffffffffffffffff82111715611831576118306119f1565b5b8060405250919050565b600067ffffffffffffffff821115611856576118556119f1565b5b601f19601f8301169050602081019050919050565b600081519050919050565b600082825260208201905092915050565b600082825260208201905092915050565b600081905092915050565b60006118ae82611915565b91506118b983611915565b9250828210156118cc576118cb611993565b5b828203905092915050565b60006118e2826118f5565b9050919050565b60008115159050919050565b600073ffffffffffffffffffffffffffffffffffffffff82169050919050565b6000819050919050565b82818337600083830152505050565b60005b8381101561194c578082015181840152602081019050611931565b8381111561195b576000848401525b50505050565b6000600282049050600182168061197957607f821691505b6020821081141561198d5761198c6119c2565b5b50919050565b7f4e487b7100000000000000000000000000000000000000000000000000000000600052601160045260246000fd5b7f4e487b7100000000000000000000000000000000000000000000000000000000600052602260045260246000fd5b7f4e487b7100000000000000000000000000000000000000000000000000000000600052604160045260246000fd5b6000601f19601f8301169050919050565b611a3a816118d7565b8114611a4557600080fd5b50565b611a5181611915565b8114611a5c57600080fd5b5056fea2646970667358221220d5788c04ce9f2f8cb9dd14f7c1245c66a446bb96ae7bb18aca545909c06c310864736f6c63430008000033",
  "immutableReferences": {},
  "source": "// SPDX-License-Identifier: MIT\npragma solidity >=0.4.22 <0.9.0;\n\nimport \"./ImmutableDocument.sol\";\n\ncontract PricingSheet is ImmutableDocument {\n    struct Pricing {\n        bool available;\n        string label;\n        uint256 price;\n    }\n\n    Pricing[] private pricings;\n\n    event NewPricing(uint256 indexed index);\n    event PricingUpdated(uint256 indexed index);\n    event PricingDisabled(uint256 indexed index);\n\n    function getPricingsLength() public view returns (uint256) {\n        return pricings.length;\n    }\n\n    function getPricing(uint256 i) public view returns (Pricing memory) {\n        return pricings[i];\n    }\n\n    /// @dev Fee is set by the owner - inherited from ImmutableDocument.\n    function addPricing(string memory _label, uint256 _price)\n        public\n        payable\n        sufficientPay\n    {\n        require(bytes(_label).length > 0, \"Label cannot be empty.\");\n        require(_price >= 0, \"Price must be greater than zero.\");\n\n        pricings.push(Pricing(true, _label, _price));\n\n        emit NewPricing(pricings.length - 1);\n    }\n\n    function editPricing(\n        uint256 i,\n        string memory _label,\n        uint256 _price\n    ) public payable sufficientPay {\n        require(bytes(_label).length > 0, \"Label cannot be empty.\");\n        require(_price >= 0, \"Price must be greater than zero.\");\n        require(pricings[i].available, \"Pricing is not available anymore.\");\n\n        pricings[i].label = _label;\n        pricings[i].price = _price;\n\n        emit PricingUpdated(i);\n    }\n\n    function disablePricing(uint256 i) public payable sufficientPay {\n        pricings[i].available = false;\n\n        emit PricingDisabled(i);\n    }\n\n    // add category...etc\n}\n",
  "sourcePath": "/home/ubuntu/projects/crea/contracts/PricingSheet.sol",
  "compiler": {
    "name": "solc",
    "version": "0.8.0+commit.c7dfd78e.Emscripten.clang"
  },
  "schemaVersion": "3.4.3",
  "updatedAt": "2021-11-21T09:48:16.726Z",
  "networkType": "ethereum",
  "devdoc": {
    "kind": "dev",
    "methods": {
      "addPricing(string,uint256)": {
        "details": "Fee is set by the owner - inherited from ImmutableDocument."
      },
      "owner()": {
        "details": "Returns the address of the current owner."
      },
      "renounceOwnership()": {
        "details": "Leaves the contract without owner. It will not be possible to call `onlyOwner` functions anymore. Can only be called by the current owner. NOTE: Renouncing ownership will leave the contract without an owner, thereby removing any functionality that is only available to the owner."
      },
      "setDocument(string)": {
        "details": "Saves a given path provided by Infura"
      },
      "transferOwnership(address)": {
        "details": "Transfers ownership of the contract to a new account (`newOwner`). Can only be called by the current owner."
      }
    },
    "version": 1
  },
  "userdoc": {
    "kind": "user",
    "methods": {},
    "version": 1
  }
}