{
  "contractName": "UniversalPricing",
  "abi": [
    {
      "anonymous": false,
      "inputs": [
        {
          "indexed": true,
          "internalType": "uint256",
          "name": "index",
          "type": "uint256"
        },
        {
          "components": [
            {
              "internalType": "bool",
              "name": "available",
              "type": "bool"
            },
            {
              "internalType": "bytes",
              "name": "name",
              "type": "bytes"
            },
            {
              "internalType": "uint256",
              "name": "price",
              "type": "uint256"
            }
          ],
          "indexed": false,
          "internalType": "struct UniversalPricing.Pricing",
          "name": "price",
          "type": "tuple"
        }
      ],
      "name": "NewPricing",
      "type": "event"
    },
    {
      "anonymous": false,
      "inputs": [
        {
          "indexed": true,
          "internalType": "address",
          "name": "previousOwner",
          "type": "address"
        },
        {
          "indexed": true,
          "internalType": "address",
          "name": "newOwner",
          "type": "address"
        }
      ],
      "name": "OwnershipTransferred",
      "type": "event"
    },
    {
      "inputs": [],
      "name": "owner",
      "outputs": [
        {
          "internalType": "address",
          "name": "",
          "type": "address"
        }
      ],
      "stateMutability": "view",
      "type": "function",
      "constant": true
    },
    {
      "inputs": [
        {
          "internalType": "uint256",
          "name": "",
          "type": "uint256"
        }
      ],
      "name": "pricings",
      "outputs": [
        {
          "internalType": "bool",
          "name": "available",
          "type": "bool"
        },
        {
          "internalType": "bytes",
          "name": "name",
          "type": "bytes"
        },
        {
          "internalType": "uint256",
          "name": "price",
          "type": "uint256"
        }
      ],
      "stateMutability": "view",
      "type": "function",
      "constant": true
    },
    {
      "inputs": [],
      "name": "renounceOwnership",
      "outputs": [],
      "stateMutability": "nonpayable",
      "type": "function"
    },
    {
      "inputs": [
        {
          "internalType": "address",
          "name": "newOwner",
          "type": "address"
        }
      ],
      "name": "transferOwnership",
      "outputs": [],
      "stateMutability": "nonpayable",
      "type": "function"
    },
    {
      "inputs": [
        {
          "internalType": "string",
          "name": "name",
          "type": "string"
        },
        {
          "internalType": "uint256",
          "name": "price",
          "type": "uint256"
        }
      ],
      "name": "addPricing",
      "outputs": [],
      "stateMutability": "nonpayable",
      "type": "function"
    }
  ],
  "bytecode": "0x608060405234801561001057600080fd5b5061002d61002261003260201b60201c565b61003a60201b60201c565b6100fe565b600033905090565b60008060009054906101000a900473ffffffffffffffffffffffffffffffffffffffff169050816000806101000a81548173ffffffffffffffffffffffffffffffffffffffff021916908373ffffffffffffffffffffffffffffffffffffffff1602179055508173ffffffffffffffffffffffffffffffffffffffff168173ffffffffffffffffffffffffffffffffffffffff167f8be0079c531659141344cd1fd0a4f28419497f9722a3daafe3b4186f6b6457e060405160405180910390a35050565b610ed68061010d6000396000f3fe608060405234801561001057600080fd5b50600436106100575760003560e01c806351780b6e1461005c57806364c8de9014610078578063715018a6146100aa5780638da5cb5b146100b4578063f2fde38b146100d2575b600080fd5b610076600480360381019061007191906107cf565b6100ee565b005b610092600480360381019061008d9190610823565b61032d565b6040516100a193929190610af8565b60405180910390f35b6100b26103fc565b005b6100bc610484565b6040516100c99190610add565b60405180910390f35b6100ec60048036038101906100e791906107a6565b6104ad565b005b6100f66105a5565b73ffffffffffffffffffffffffffffffffffffffff16610114610484565b73ffffffffffffffffffffffffffffffffffffffff161461016a576040517f08c379a000000000000000000000000000000000000000000000000000000000815260040161016190610b56565b60405180910390fd5b60008251116101ae576040517f08c379a00000000000000000000000000000000000000000000000000000000081526004016101a590610b96565b60405180910390fd5b60008110156101f2576040517f08c379a00000000000000000000000000000000000000000000000000000000081526004016101e990610b76565b60405180910390fd5b6001604051806060016040528060001515815260200184815260200183815250908060018154018082558091505060019003906000526020600020906003020160009091909190915060008201518160000160006101000a81548160ff0219169083151502179055506020820151816001019080519060200190610277929190610671565b506040820151816002015550506000600180805490506102979190610c8c565b9050600180805490506102aa9190610c8c565b7f897d4f0a1b898ea3eec9eefc3b034361ad09ff6eaabe20ad5ae6c21f9ac1d4eb60018381548110610305577f4e487b7100000000000000000000000000000000000000000000000000000000600052603260045260246000fd5b90600052602060002090600302016040516103209190610bb6565b60405180910390a2505050565b6001818154811061033d57600080fd5b90600052602060002090600302016000915090508060000160009054906101000a900460ff169080600101805461037390610d61565b80601f016020809104026020016040519081016040528092919081815260200182805461039f90610d61565b80156103ec5780601f106103c1576101008083540402835291602001916103ec565b820191906000526020600020905b8154815290600101906020018083116103cf57829003601f168201915b5050505050908060020154905083565b6104046105a5565b73ffffffffffffffffffffffffffffffffffffffff16610422610484565b73ffffffffffffffffffffffffffffffffffffffff1614610478576040517f08c379a000000000000000000000000000000000000000000000000000000000815260040161046f90610b56565b60405180910390fd5b61048260006105ad565b565b60008060009054906101000a900473ffffffffffffffffffffffffffffffffffffffff16905090565b6104b56105a5565b73ffffffffffffffffffffffffffffffffffffffff166104d3610484565b73ffffffffffffffffffffffffffffffffffffffff1614610529576040517f08c379a000000000000000000000000000000000000000000000000000000000815260040161052090610b56565b60405180910390fd5b600073ffffffffffffffffffffffffffffffffffffffff168173ffffffffffffffffffffffffffffffffffffffff161415610599576040517f08c379a000000000000000000000000000000000000000000000000000000000815260040161059090610b36565b60405180910390fd5b6105a2816105ad565b50565b600033905090565b60008060009054906101000a900473ffffffffffffffffffffffffffffffffffffffff169050816000806101000a81548173ffffffffffffffffffffffffffffffffffffffff021916908373ffffffffffffffffffffffffffffffffffffffff1602179055508173ffffffffffffffffffffffffffffffffffffffff168173ffffffffffffffffffffffffffffffffffffffff167f8be0079c531659141344cd1fd0a4f28419497f9722a3daafe3b4186f6b6457e060405160405180910390a35050565b82805461067d90610d61565b90600052602060002090601f01602090048101928261069f57600085556106e6565b82601f106106b857805160ff19168380011785556106e6565b828001600101855582156106e6579182015b828111156106e55782518255916020019190600101906106ca565b5b5090506106f391906106f7565b5090565b5b808211156107105760008160009055506001016106f8565b5090565b600061072761072284610c09565b610bd8565b90508281526020810184848401111561073f57600080fd5b61074a848285610d1f565b509392505050565b60008135905061076181610e72565b92915050565b600082601f83011261077857600080fd5b8135610788848260208601610714565b91505092915050565b6000813590506107a081610e89565b92915050565b6000602082840312156107b857600080fd5b60006107c684828501610752565b91505092915050565b600080604083850312156107e257600080fd5b600083013567ffffffffffffffff8111156107fc57600080fd5b61080885828601610767565b925050602061081985828601610791565b9150509250929050565b60006020828403121561083557600080fd5b600061084384828501610791565b91505092915050565b61085581610cd7565b82525050565b61086481610ce9565b82525050565b61087381610ce9565b82525050565b600061088482610c4e565b61088e8185610c6a565b935061089e818560208601610d2e565b6108a781610e54565b840191505092915050565b600081546108bf81610d61565b6108c98186610c59565b945060018216600081146108e457600181146108f657610929565b60ff1983168652602086019350610929565b6108ff85610c39565b60005b8381101561092157815481890152600182019150602081019050610902565b808801955050505b50505092915050565b600061093f602683610c7b565b91507f4f776e61626c653a206e6577206f776e657220697320746865207a65726f206160008301527f64647265737300000000000000000000000000000000000000000000000000006020830152604082019050919050565b60006109a5602083610c7b565b91507f4f776e61626c653a2063616c6c6572206973206e6f7420746865206f776e65726000830152602082019050919050565b60006109e5602083610c7b565b91507f5072696365206d7573742062652067726561746572207468616e207a65726f2e6000830152602082019050919050565b6000610a25601583610c7b565b91507f4e616d652063616e6e6f7420626520656d7074792e00000000000000000000006000830152602082019050919050565b6000606083016000808401549050610a6f81610d93565b610a7c600087018261085b565b50600184018583036020870152610a9383826108b2565b92505060028401549050610aa681610dad565b610ab36040870182610abf565b50819250505092915050565b610ac881610d15565b82525050565b610ad781610d15565b82525050565b6000602082019050610af2600083018461084c565b92915050565b6000606082019050610b0d600083018661086a565b8181036020830152610b1f8185610879565b9050610b2e6040830184610ace565b949350505050565b60006020820190508181036000830152610b4f81610932565b9050919050565b60006020820190508181036000830152610b6f81610998565b9050919050565b60006020820190508181036000830152610b8f816109d8565b9050919050565b60006020820190508181036000830152610baf81610a18565b9050919050565b60006020820190508181036000830152610bd08184610a58565b905092915050565b6000604051905081810181811067ffffffffffffffff82111715610bff57610bfe610e25565b5b8060405250919050565b600067ffffffffffffffff821115610c2457610c23610e25565b5b601f19601f8301169050602081019050919050565b60008190508160005260206000209050919050565b600081519050919050565b600082825260208201905092915050565b600082825260208201905092915050565b600082825260208201905092915050565b6000610c9782610d15565b9150610ca283610d15565b925082821015610cb557610cb4610dc7565b5b828203905092915050565b600060ff82169050919050565b6000819050919050565b6000610ce282610cf5565b9050919050565b60008115159050919050565b600073ffffffffffffffffffffffffffffffffffffffff82169050919050565b6000819050919050565b82818337600083830152505050565b60005b83811015610d4c578082015181840152602081019050610d31565b83811115610d5b576000848401525b50505050565b60006002820490506001821680610d7957607f821691505b60208210811415610d8d57610d8c610df6565b5b50919050565b6000610da6610da183610e65565b610cc0565b9050919050565b6000610dc0610dbb83610e65565b610ccd565b9050919050565b7f4e487b7100000000000000000000000000000000000000000000000000000000600052601160045260246000fd5b7f4e487b7100000000000000000000000000000000000000000000000000000000600052602260045260246000fd5b7f4e487b7100000000000000000000000000000000000000000000000000000000600052604160045260246000fd5b6000601f19601f8301169050919050565b60008160001c9050919050565b610e7b81610cd7565b8114610e8657600080fd5b50565b610e9281610d15565b8114610e9d57600080fd5b5056fea26469706673582212203c3700ad5ff2ed4ed4752eccd3128140860795efe36d893194a13de737e2532764736f6c63430008000033",
  "immutableReferences": {},
  "source": "// SPDX-License-Identifier: MIT\npragma solidity >=0.4.22 <0.9.0;\n\nimport \"@openzeppelin/contracts/access/Ownable.sol\";\nimport \"@openzeppelin/contracts/utils/Strings.sol\";\n\ncontract UniversalPricing is Ownable {\n    struct Pricing {\n        bool available;\n        bytes name;\n        uint256 price;\n    }\n\n    Pricing[] public pricings;\n\n    event NewPricing(uint256 indexed index, Pricing price);\n\n    function addPricing(string memory name, uint256 price) public onlyOwner {\n        require(bytes(name).length > 0, \"Name cannot be empty.\");\n        require(price >= 0, \"Price must be greater than zero.\");\n\n        pricings.push(Pricing(false, bytes(name), price));\n\n        uint256 i = pricings.length - 1;\n        emit NewPricing(pricings.length - 1, pricings[i]);\n    }\n}\n",
  "sourcePath": "/home/ubuntu/projects/crea/contracts/UniversalPricing.sol",
  "compiler": {
    "name": "solc",
    "version": "0.8.0+commit.c7dfd78e.Emscripten.clang"
  },
  "schemaVersion": "3.4.3",
  "updatedAt": "2021-11-17T13:13:22.658Z",
  "networkType": "ethereum",
  "devdoc": {
    "kind": "dev",
    "methods": {
      "owner()": {
        "details": "Returns the address of the current owner."
      },
      "renounceOwnership()": {
        "details": "Leaves the contract without owner. It will not be possible to call `onlyOwner` functions anymore. Can only be called by the current owner. NOTE: Renouncing ownership will leave the contract without an owner, thereby removing any functionality that is only available to the owner."
      },
      "transferOwnership(address)": {
        "details": "Transfers ownership of the contract to a new account (`newOwner`). Can only be called by the current owner."
      }
    },
    "version": 1
  },
  "userdoc": {
    "kind": "user",
    "methods": {},
    "version": 1
  }
}